{
  "_format": "hh-sol-artifact-1",
  "contractName": "Airdrop",
  "sourceName": "contracts/Airdrop.sol",
  "abi": [
    {
      "inputs": [
        {
          "internalType": "address",
          "name": "_airdropToken",
          "type": "address"
        }
      ],
      "stateMutability": "nonpayable",
      "type": "constructor"
    },
    {
      "anonymous": false,
      "inputs": [
        {
          "indexed": false,
          "internalType": "address",
          "name": "beneficiary",
          "type": "address"
        }
      ],
      "name": "TokensAirdropped",
      "type": "event"
    },
    {
      "inputs": [],
      "name": "TOKENS_PER_CLAIM",
      "outputs": [
        {
          "internalType": "uint256",
          "name": "",
          "type": "uint256"
        }
      ],
      "stateMutability": "view",
      "type": "function"
    },
    {
      "inputs": [],
      "name": "airdropToken",
      "outputs": [
        {
          "internalType": "contract IERC20",
          "name": "",
          "type": "address"
        }
      ],
      "stateMutability": "view",
      "type": "function"
    },
    {
      "inputs": [],
      "name": "totalTokensWithdrawn",
      "outputs": [
        {
          "internalType": "uint256",
          "name": "",
          "type": "uint256"
        }
      ],
      "stateMutability": "view",
      "type": "function"
    },
    {
      "inputs": [
        {
          "internalType": "address",
          "name": "",
          "type": "address"
        }
      ],
      "name": "wasClaimed",
      "outputs": [
        {
          "internalType": "bool",
          "name": "",
          "type": "bool"
        }
      ],
      "stateMutability": "view",
      "type": "function"
    },
    {
      "inputs": [],
      "name": "withdrawTokens",
      "outputs": [],
      "stateMutability": "nonpayable",
      "type": "function"
    }
  ],
  "bytecode": "0x608060405234801561001057600080fd5b506040516104373803806104378339818101604052602081101561003357600080fd5b50516001600160a01b03811661004857600080fd5b600080546001600160a01b039092166001600160a01b03199092169190911790556103bf806100786000396000f3fe608060405234801561001057600080fd5b50600436106100575760003560e01c80634d06068a1461005c5780638d8f2adb14610080578063bd8d8c321461008a578063cac37f93146100c4578063ccfff679146100de575b600080fd5b6100646100e6565b604080516001600160a01b039092168252519081900360200190f35b6100886100f5565b005b6100b0600480360360208110156100a057600080fd5b50356001600160a01b03166102d7565b604080519115158252519081900360200190f35b6100cc6102ec565b60408051918252519081900360200190f35b6100cc6102f2565b6000546001600160a01b031681565b3332146101335760405162461bcd60e51b81526004018080602001828103825260298152602001806103616029913960400191505060405180910390fd5b3360008181526002602052604090205460ff161561018b576040805162461bcd60e51b815260206004820152601060248201526f416c726561647920636c61696d65642160801b604482015290519081900360640190fd5b336000908152600260209081526040808320805460ff191660011790558254815163a9059cbb60e01b81526001600160a01b03868116600483015268056bc75e2d6310000060248301529251919092169263a9059cbb926044808201939182900301818787803b1580156101fe57600080fd5b505af1158015610212573d6000803e3d6000fd5b505050506040513d602081101561022857600080fd5b505190508061027e576040805162461bcd60e51b815260206004820152601f60248201527f546f6b656e207472616e73666572207374617475732069732066616c73652e00604482015290519081900360640190fd5b6001546102949068056bc75e2d631000006102ff565b600155604080516001600160a01b038416815290517fdf23082d2b28b19078bc48141d3fdbfd14390048297d149755a09e7edd8129a99181900360200190a15050565b60026020526000908152604090205460ff1681565b60015481565b68056bc75e2d6310000081565b600082820183811015610359576040805162461bcd60e51b815260206004820152601b60248201527f536166654d6174683a206164646974696f6e206f766572666c6f770000000000604482015290519081900360640190fd5b939250505056fe526571756972652074686174206d6573736167652073656e6465722069732074782d6f726967696e2ea2646970667358221220dded2ff780ad03e2d2df131882851fc96d2ebc300ea6e42f4c859b8bcf60f26b64736f6c634300060c0033",
  "linkReferences": {},
  "deployedLinkReferences": {}
}