{
  "_format": "hh-sol-artifact-1",
  "contractName": "FarmingC2N",
  "sourceName": "contracts/farming/FarmingC2N.sol",
  "abi": [
    {
      "inputs": [
        {
          "internalType": "contract IERC20",
          "name": "_erc20",
          "type": "address"
        },
        {
          "internalType": "uint256",
          "name": "_rewardPerSecond",
          "type": "uint256"
        },
        {
          "internalType": "uint256",
          "name": "_startTimestamp",
          "type": "uint256"
        }
      ],
      "stateMutability": "nonpayable",
      "type": "constructor"
    },
    {
      "anonymous": false,
      "inputs": [
        {
          "indexed": true,
          "internalType": "address",
          "name": "user",
          "type": "address"
        },
        {
          "indexed": true,
          "internalType": "uint256",
          "name": "pid",
          "type": "uint256"
        },
        {
          "indexed": false,
          "internalType": "uint256",
          "name": "amount",
          "type": "uint256"
        }
      ],
      "name": "Deposit",
      "type": "event"
    },
    {
      "anonymous": false,
      "inputs": [
        {
          "indexed": true,
          "internalType": "address",
          "name": "user",
          "type": "address"
        },
        {
          "indexed": true,
          "internalType": "uint256",
          "name": "pid",
          "type": "uint256"
        },
        {
          "indexed": false,
          "internalType": "uint256",
          "name": "amount",
          "type": "uint256"
        }
      ],
      "name": "EmergencyWithdraw",
      "type": "event"
    },
    {
      "anonymous": false,
      "inputs": [
        {
          "indexed": true,
          "internalType": "address",
          "name": "previousOwner",
          "type": "address"
        },
        {
          "indexed": true,
          "internalType": "address",
          "name": "newOwner",
          "type": "address"
        }
      ],
      "name": "OwnershipTransferred",
      "type": "event"
    },
    {
      "anonymous": false,
      "inputs": [
        {
          "indexed": true,
          "internalType": "address",
          "name": "user",
          "type": "address"
        },
        {
          "indexed": true,
          "internalType": "uint256",
          "name": "pid",
          "type": "uint256"
        },
        {
          "indexed": false,
          "internalType": "uint256",
          "name": "amount",
          "type": "uint256"
        }
      ],
      "name": "Withdraw",
      "type": "event"
    },
    {
      "inputs": [
        {
          "internalType": "uint256",
          "name": "_allocPoint",
          "type": "uint256"
        },
        {
          "internalType": "contract IERC20",
          "name": "_lpToken",
          "type": "address"
        },
        {
          "internalType": "bool",
          "name": "_withUpdate",
          "type": "bool"
        }
      ],
      "name": "add",
      "outputs": [],
      "stateMutability": "nonpayable",
      "type": "function"
    },
    {
      "inputs": [
        {
          "internalType": "uint256",
          "name": "_pid",
          "type": "uint256"
        },
        {
          "internalType": "uint256",
          "name": "_amount",
          "type": "uint256"
        }
      ],
      "name": "deposit",
      "outputs": [],
      "stateMutability": "nonpayable",
      "type": "function"
    },
    {
      "inputs": [
        {
          "internalType": "uint256",
          "name": "_pid",
          "type": "uint256"
        },
        {
          "internalType": "address",
          "name": "_user",
          "type": "address"
        }
      ],
      "name": "deposited",
      "outputs": [
        {
          "internalType": "uint256",
          "name": "",
          "type": "uint256"
        }
      ],
      "stateMutability": "view",
      "type": "function"
    },
    {
      "inputs": [
        {
          "internalType": "uint256",
          "name": "_pid",
          "type": "uint256"
        }
      ],
      "name": "emergencyWithdraw",
      "outputs": [],
      "stateMutability": "nonpayable",
      "type": "function"
    },
    {
      "inputs": [],
      "name": "endTimestamp",
      "outputs": [
        {
          "internalType": "uint256",
          "name": "",
          "type": "uint256"
        }
      ],
      "stateMutability": "view",
      "type": "function"
    },
    {
      "inputs": [],
      "name": "erc20",
      "outputs": [
        {
          "internalType": "contract IERC20",
          "name": "",
          "type": "address"
        }
      ],
      "stateMutability": "view",
      "type": "function"
    },
    {
      "inputs": [
        {
          "internalType": "uint256",
          "name": "_amount",
          "type": "uint256"
        }
      ],
      "name": "fund",
      "outputs": [],
      "stateMutability": "nonpayable",
      "type": "function"
    },
    {
      "inputs": [],
      "name": "massUpdatePools",
      "outputs": [],
      "stateMutability": "nonpayable",
      "type": "function"
    },
    {
      "inputs": [],
      "name": "owner",
      "outputs": [
        {
          "internalType": "address",
          "name": "",
          "type": "address"
        }
      ],
      "stateMutability": "view",
      "type": "function"
    },
    {
      "inputs": [],
      "name": "paidOut",
      "outputs": [
        {
          "internalType": "uint256",
          "name": "",
          "type": "uint256"
        }
      ],
      "stateMutability": "view",
      "type": "function"
    },
    {
      "inputs": [
        {
          "internalType": "uint256",
          "name": "_pid",
          "type": "uint256"
        },
        {
          "internalType": "address",
          "name": "_user",
          "type": "address"
        }
      ],
      "name": "pending",
      "outputs": [
        {
          "internalType": "uint256",
          "name": "",
          "type": "uint256"
        }
      ],
      "stateMutability": "view",
      "type": "function"
    },
    {
      "inputs": [
        {
          "internalType": "uint256",
          "name": "",
          "type": "uint256"
        }
      ],
      "name": "poolInfo",
      "outputs": [
        {
          "internalType": "contract IERC20",
          "name": "lpToken",
          "type": "address"
        },
        {
          "internalType": "uint256",
          "name": "allocPoint",
          "type": "uint256"
        },
        {
          "internalType": "uint256",
          "name": "lastRewardTimestamp",
          "type": "uint256"
        },
        {
          "internalType": "uint256",
          "name": "accERC20PerShare",
          "type": "uint256"
        },
        {
          "internalType": "uint256",
          "name": "totalDeposits",
          "type": "uint256"
        }
      ],
      "stateMutability": "view",
      "type": "function"
    },
    {
      "inputs": [],
      "name": "poolLength",
      "outputs": [
        {
          "internalType": "uint256",
          "name": "",
          "type": "uint256"
        }
      ],
      "stateMutability": "view",
      "type": "function"
    },
    {
      "inputs": [],
      "name": "renounceOwnership",
      "outputs": [],
      "stateMutability": "nonpayable",
      "type": "function"
    },
    {
      "inputs": [],
      "name": "rewardPerSecond",
      "outputs": [
        {
          "internalType": "uint256",
          "name": "",
          "type": "uint256"
        }
      ],
      "stateMutability": "view",
      "type": "function"
    },
    {
      "inputs": [
        {
          "internalType": "uint256",
          "name": "_pid",
          "type": "uint256"
        },
        {
          "internalType": "uint256",
          "name": "_allocPoint",
          "type": "uint256"
        },
        {
          "internalType": "bool",
          "name": "_withUpdate",
          "type": "bool"
        }
      ],
      "name": "set",
      "outputs": [],
      "stateMutability": "nonpayable",
      "type": "function"
    },
    {
      "inputs": [],
      "name": "startTimestamp",
      "outputs": [
        {
          "internalType": "uint256",
          "name": "",
          "type": "uint256"
        }
      ],
      "stateMutability": "view",
      "type": "function"
    },
    {
      "inputs": [],
      "name": "totalAllocPoint",
      "outputs": [
        {
          "internalType": "uint256",
          "name": "",
          "type": "uint256"
        }
      ],
      "stateMutability": "view",
      "type": "function"
    },
    {
      "inputs": [],
      "name": "totalPending",
      "outputs": [
        {
          "internalType": "uint256",
          "name": "",
          "type": "uint256"
        }
      ],
      "stateMutability": "view",
      "type": "function"
    },
    {
      "inputs": [],
      "name": "totalRewards",
      "outputs": [
        {
          "internalType": "uint256",
          "name": "",
          "type": "uint256"
        }
      ],
      "stateMutability": "view",
      "type": "function"
    },
    {
      "inputs": [
        {
          "internalType": "address",
          "name": "newOwner",
          "type": "address"
        }
      ],
      "name": "transferOwnership",
      "outputs": [],
      "stateMutability": "nonpayable",
      "type": "function"
    },
    {
      "inputs": [
        {
          "internalType": "uint256",
          "name": "_pid",
          "type": "uint256"
        }
      ],
      "name": "updatePool",
      "outputs": [],
      "stateMutability": "nonpayable",
      "type": "function"
    },
    {
      "inputs": [
        {
          "internalType": "uint256",
          "name": "",
          "type": "uint256"
        },
        {
          "internalType": "address",
          "name": "",
          "type": "address"
        }
      ],
      "name": "userInfo",
      "outputs": [
        {
          "internalType": "uint256",
          "name": "amount",
          "type": "uint256"
        },
        {
          "internalType": "uint256",
          "name": "rewardDebt",
          "type": "uint256"
        }
      ],
      "stateMutability": "view",
      "type": "function"
    },
    {
      "inputs": [
        {
          "internalType": "uint256",
          "name": "_pid",
          "type": "uint256"
        },
        {
          "internalType": "uint256",
          "name": "_amount",
          "type": "uint256"
        }
      ],
      "name": "withdraw",
      "outputs": [],
      "stateMutability": "nonpayable",
      "type": "function"
    }
  ],
  "bytecode": "0x608060405234801561001057600080fd5b506040516117193803806117198339818101604052606081101561003357600080fd5b5080516020820151604090920151909190600061004e6100c9565b600080546001600160a01b0319166001600160a01b0383169081178255604051929350917f8be0079c531659141344cd1fd0a4f28419497f9722a3daafe3b4186f6b6457e0908290a350600180546001600160a01b0319166001600160a01b03949094169390931790925560035560088190556009556100cd565b3390565b61163d806100dc6000396000f3fe608060405234801561001057600080fd5b50600436106101585760003560e01c8063715018a6116100c3578063a85adeab1161007c578063a85adeab1461035c578063ca1d209d14610364578063e2bbb15814610381578063e4c75c27146103a4578063e6fd48bc146103d0578063f2fde38b146103d857610158565b8063715018a6146102af578063785e9e86146102b75780638da5cb5b146102db5780638f10369a146102e357806393f1a40b146102eb578063a23831061461033057610158565b8063441a3e7011610115578063441a3e701461021757806351eb05a61461023a5780635312ea8e146102575780635c76ca2d14610274578063630b5ba11461027c57806364482f791461028457610158565b8063081e3eda1461015d5780630e15561a146101775780631526fe271461017f57806317caf6f1146101d15780631eaaa045146101d95780633f90916a1461020f575b600080fd5b6101656103fe565b60408051918252519081900360200190f35b610165610405565b61019c6004803603602081101561019557600080fd5b503561040b565b604080516001600160a01b03909616865260208601949094528484019290925260608401526080830152519081900360a00190f35b610165610453565b61020d600480360360608110156101ef57600080fd5b508035906001600160a01b0360208201351690604001351515610459565b005b61016561060f565b61020d6004803603604081101561022d57600080fd5b5080359060200135610664565b61020d6004803603602081101561025057600080fd5b50356107cc565b61020d6004803603602081101561026d57600080fd5b50356108b3565b610165610963565b61020d610969565b61020d6004803603606081101561029a57600080fd5b5080359060208101359060400135151561098c565b61020d610a67565b6102bf610b13565b604080516001600160a01b039092168252519081900360200190f35b6102bf610b22565b610165610b31565b6103176004803603604081101561030157600080fd5b50803590602001356001600160a01b0316610b37565b6040805192835260208301919091528051918290030190f35b6101656004803603604081101561034657600080fd5b50803590602001356001600160a01b0316610b5b565b610165610b85565b61020d6004803603602081101561037a57600080fd5b5035610b8b565b61020d6004803603604081101561039757600080fd5b5080359060200135610c0d565b610165600480360360408110156103ba57600080fd5b50803590602001356001600160a01b0316610d38565b610165610e72565b61020d600480360360208110156103ee57600080fd5b50356001600160a01b0316610e78565b6005545b90565b60045481565b6005818154811061041857fe5b6000918252602090912060059091020180546001820154600283015460038401546004909401546001600160a01b0390931694509092909185565b60075481565b610461610f7a565b6001600160a01b0316610472610b22565b6001600160a01b0316146104bb576040805162461bcd60e51b81526020600482018190526024820152600080516020611572833981519152604482015290519081900360640190fd5b80156104c9576104c9610969565b600060085442116104dc576008546104de565b425b6007549091506104ee9085610f7e565b6007556040805160a0810182526001600160a01b0394851681526020810195865290810191825260006060820181815260808301828152600580546001810182559381905293517f036b6384b5eca791c62761152d0c79bb0604c104a5fb6f4eb0703f3154bb3db09390940292830180546001600160a01b031916949097169390931790955594517f036b6384b5eca791c62761152d0c79bb0604c104a5fb6f4eb0703f3154bb3db186015590517f036b6384b5eca791c62761152d0c79bb0604c104a5fb6f4eb0703f3154bb3db285015591517f036b6384b5eca791c62761152d0c79bb0604c104a5fb6f4eb0703f3154bb3db384015550517f036b6384b5eca791c62761152d0c79bb0604c104a5fb6f4eb0703f3154bb3db490910155565b6000600854421161062257506000610402565b6000600954421061063557600954610637565b425b905061065e6002546106586008548403600354610fdf90919063ffffffff16565b90611038565b91505090565b60006005838154811061067357fe5b6000918252602080832086845260068252604080852033865290925292208054600590920290920192508311156106db5760405162461bcd60e51b815260040180806020018281038252602a8152602001806115b4602a913960400191505060405180910390fd5b6106e4846107cc565b600061072182600101546106586a0c097ce7bc90715b34b9f160241b61071b87600301548760000154610fdf90919063ffffffff16565b90611095565b905061072d33826110fc565b81546107399085611038565b808355600384015461075f916a0c097ce7bc90715b34b9f160241b9161071b9190610fdf565b6001830155825461077a906001600160a01b0316338661118a565b60048301546107899085611038565b6004840155604080518581529051869133917ff279e6a1f5e320cca91135676d9cb6e44ca8a08c0b88342bcdb1144f6511b5689181900360200190a35050505050565b6000600582815481106107db57fe5b90600052602060002090600502019050600060095442106107fe57600954610800565b425b9050816002015481116108145750506108b0565b60048201548061082a57506002909101556108b0565b600061084384600201548461103890919063ffffffff16565b9050600061087060075461071b876001015461086a60035487610fdf90919063ffffffff16565b90610fdf565b905061089c6108918461071b846a0c097ce7bc90715b34b9f160241b610fdf565b600387015490610f7e565b600386015550504260029093019290925550505b50565b6000600582815481106108c257fe5b60009182526020808320858452600682526040808520338087529352909320805460059093029093018054909450610907926001600160a01b0391909116919061118a565b8054600483015461091791611038565b600483015580546040805191825251849133917fbb757047c2b5f3974fe26b7c10f732e7bce710b0952a71082702781e62ae05959181900360200190a360008082556001909101555050565b60025481565b60055460005b8181101561098857610980816107cc565b60010161096f565b5050565b610994610f7a565b6001600160a01b03166109a5610b22565b6001600160a01b0316146109ee576040805162461bcd60e51b81526020600482018190526024820152600080516020611572833981519152604482015290519081900360640190fd5b80156109fc576109fc610969565b610a3982610a3360058681548110610a1057fe5b90600052602060002090600502016001015460075461103890919063ffffffff16565b90610f7e565b6007819055508160058481548110610a4d57fe5b906000526020600020906005020160010181905550505050565b610a6f610f7a565b6001600160a01b0316610a80610b22565b6001600160a01b031614610ac9576040805162461bcd60e51b81526020600482018190526024820152600080516020611572833981519152604482015290519081900360640190fd5b600080546040516001600160a01b03909116907f8be0079c531659141344cd1fd0a4f28419497f9722a3daafe3b4186f6b6457e0908390a3600080546001600160a01b0319169055565b6001546001600160a01b031681565b6000546001600160a01b031690565b60035481565b60066020908152600092835260408084209091529082529020805460019091015482565b60008281526006602090815260408083206001600160a01b03851684529091529020545b92915050565b60095481565b6009544210610bcb5760405162461bcd60e51b81526004018080602001828103825260228152602001806115926022913960400191505060405180910390fd5b600154610be3906001600160a01b03163330846111e1565b600354610bf1908290611095565b600980549091019055600454610c079082610f7e565b60045550565b600060058381548110610c1c57fe5b60009182526020808320868452600682526040808520338652909252922060059091029091019150610c4d846107cc565b805415610c99576000610c8b82600101546106586a0c097ce7bc90715b34b9f160241b61071b87600301548760000154610fdf90919063ffffffff16565b9050610c9733826110fc565b505b8154610cb0906001600160a01b03163330866111e1565b6004820154610cbf9084610f7e565b60048301558054610cd09084610f7e565b8082556003830154610cf6916a0c097ce7bc90715b34b9f160241b9161071b9190610fdf565b6001820155604080518481529051859133917f90890809c654f11d6e72a28fa60149770a0d11ec6c92319d6ceb2bb0a4ea1a159181900360200190a350505050565b60008060058481548110610d4857fe5b600091825260208083208784526006825260408085206001600160a01b03891686529092529220600360059092029092019081015460048201546002830154929450909142118015610d9957508015155b15610e365760006009544210610db157600954610db3565b425b90506000600954866002015410610dcc57600954610dd2565b85600201545b90506000610de08383611038565b90506000610e0760075461071b8a6001015461086a60035487610fdf90919063ffffffff16565b9050610e2f610e288661071b846a0c097ce7bc90715b34b9f160241b610fdf565b8790610f7e565b9550505050505b610e6783600101546106586a0c097ce7bc90715b34b9f160241b61071b868860000154610fdf90919063ffffffff16565b979650505050505050565b60085481565b610e80610f7a565b6001600160a01b0316610e91610b22565b6001600160a01b031614610eda576040805162461bcd60e51b81526020600482018190526024820152600080516020611572833981519152604482015290519081900360640190fd5b6001600160a01b038116610f1f5760405162461bcd60e51b81526004018080602001828103825260268152602001806115056026913960400191505060405180910390fd5b600080546040516001600160a01b03808516939216917f8be0079c531659141344cd1fd0a4f28419497f9722a3daafe3b4186f6b6457e091a3600080546001600160a01b0319166001600160a01b0392909216919091179055565b3390565b600082820183811015610fd8576040805162461bcd60e51b815260206004820152601b60248201527f536166654d6174683a206164646974696f6e206f766572666c6f770000000000604482015290519081900360640190fd5b9392505050565b600082610fee57506000610b7f565b82820282848281610ffb57fe5b0414610fd85760405162461bcd60e51b81526004018080602001828103825260218152602001806115516021913960400191505060405180910390fd5b60008282111561108f576040805162461bcd60e51b815260206004820152601e60248201527f536166654d6174683a207375627472616374696f6e206f766572666c6f770000604482015290519081900360640190fd5b50900390565b60008082116110eb576040805162461bcd60e51b815260206004820152601a60248201527f536166654d6174683a206469766973696f6e206279207a65726f000000000000604482015290519081900360640190fd5b8183816110f457fe5b049392505050565b6001546040805163a9059cbb60e01b81526001600160a01b038581166004830152602482018590529151919092169163a9059cbb9160448083019260209291908290030181600087803b15801561115257600080fd5b505af1158015611166573d6000803e3d6000fd5b505050506040513d602081101561117c57600080fd5b505060028054909101905550565b604080516001600160a01b038416602482015260448082018490528251808303909101815260649091019091526020810180516001600160e01b031663a9059cbb60e01b1790526111dc908490611241565b505050565b604080516001600160a01b0380861660248301528416604482015260648082018490528251808303909101815260849091019091526020810180516001600160e01b03166323b872dd60e01b17905261123b908590611241565b50505050565b6060611296826040518060400160405280602081526020017f5361666545524332303a206c6f772d6c6576656c2063616c6c206661696c6564815250856001600160a01b03166112f29092919063ffffffff16565b8051909150156111dc578080602001905160208110156112b557600080fd5b50516111dc5760405162461bcd60e51b815260040180806020018281038252602a8152602001806115de602a913960400191505060405180910390fd5b60606113018484600085611309565b949350505050565b60608247101561134a5760405162461bcd60e51b815260040180806020018281038252602681526020018061152b6026913960400191505060405180910390fd5b6113538561145a565b6113a4576040805162461bcd60e51b815260206004820152601d60248201527f416464726573733a2063616c6c20746f206e6f6e2d636f6e7472616374000000604482015290519081900360640190fd5b60006060866001600160a01b031685876040518082805190602001908083835b602083106113e35780518252601f1990920191602091820191016113c4565b6001836020036101000a03801982511681845116808217855250505050505090500191505060006040518083038185875af1925050503d8060008114611445576040519150601f19603f3d011682016040523d82523d6000602084013e61144a565b606091505b5091509150610e67828286611460565b3b151590565b6060831561146f575081610fd8565b82511561147f5782518084602001fd5b8160405162461bcd60e51b81526004018080602001828103825283818151815260200191508051906020019080838360005b838110156114c95781810151838201526020016114b1565b50505050905090810190601f1680156114f65780820380516001836020036101000a031916815260200191505b509250505060405180910390fdfe4f776e61626c653a206e6577206f776e657220697320746865207a65726f2061646472657373416464726573733a20696e73756666696369656e742062616c616e636520666f722063616c6c536166654d6174683a206d756c7469706c69636174696f6e206f766572666c6f774f776e61626c653a2063616c6c6572206973206e6f7420746865206f776e657266756e643a20746f6f206c6174652c20746865206661726d20697320636c6f73656477697468647261773a2063616e2774207769746864726177206d6f7265207468616e206465706f7369745361666545524332303a204552433230206f7065726174696f6e20646964206e6f742073756363656564a2646970667358221220ff240cee5aa1417613dbf199c35a8375cfcc91e41ef1acee68b4a57207c6aa3b64736f6c634300060c0033",
  "linkReferences": {},
  "deployedLinkReferences": {}
}